:020000040000FA
:020000001B28BB
:040002000034003492
:08000800A4000308A5000B1D74
:1000100017280B1106308107A014A60B17287D3076
:10002000A6002016A10B172820150230A1002508D4
:100030008300240809008316003086000510D330A1
:1000400081008312A201A3018B168B17A0185720E1
:10005000A01D4028851D3D28201A5020201D26283F
:100060002011A20A0A302202031C2628A201A30A98
:100070000A3023020318A3012628A0110510262800
:10008000851C4728051A2628A201A3012628A015A9
:10009000201120127D30A6000230A1000514262870
:1000A0002012051C55280510080005140800A01092
:1000B000061E5F2823086320EF3986000800220807
:1000C0006320860008008207FE343834DD347D3436
:0C00D0003B347734F7343C34FF347F3489
:02400E00703F01
:00000001FF
