:020000040000FA
:020000002128B5
:040002000034003492
:08000800A8000308A9000B1D6C
:1000100012280B11063081072014A10B1228FA3088
:10002000A100A014290883002808090082073F3492
:1000300006345B344F3466346D347D3407347F349A
:100040006F34831607110F3086008801D13081008C
:10005000C4309F008312C9309F00A201A301A401F4
:10006000A501A011071107100612861206138613A8
:100070008B168B17061C3D283A28861C2D28061D3A
:10008000A011861DA01520188520A01C3A28A010BC
:10009000A01983289F151F151F194C281E08A6009C
:1000A00083161E088312A700A5012608AA002708A8
:1000B000AB000330AC00E830AD00A4202019662866
:1000C0002E08A6002F08A700A50A5528A401260877
:1000D000AA002708AB000030AC006430AD00A420BB
:1000E000201978282E08A6002F08A700A40A672840
:1000F000A3010A302702031C8028A700A30A79283D
:100100002708A2003A289F114B282010061E8E288F
:10011000061223081620880086160800861E9628D8
:10012000861224081620880006170800061F9E283D
:100130000613250816208800861708008613220853
:10014000162088000616080020112D082B02AF008B
:10015000031C20152C082A02AE00031CB728201D02
:1001600008000130AE02031C080020110800201511
:02017000080085
:02400E00713F00
:00000001FF
