:020000040000FA
:10000000831600308600051083120130A0012B28D2
:10001000051D1628851D2428851C2B280828051D4C
:10002000A100851C2B28A10B0F28080064300F208D
:10003000A00A2008352086000828851DA100851CFF
:100040002B28A10B1D28080064301D20A0032008C8
:10005000352086000828FE3086000130A0000828E0
:100060000A30A00035208600082882073028FE3498
:100070003834DD347D343B347734F7343C34FF346A
:040080007F342B2876
:040084000034003410
:02400E00703F01
:00000001FF
