:020000040000FA
:020000002128B5
:040002000034003492
:08000800A8000308A9000B1D6C
:1000100012280B11063081072014A10B1228FA3088
:10002000A100A014290883002808090082073F3492
:1000300006345B344F3466346D347D3407347F349A
:100040006F34831607110F3086008801D13081008C
:10005000C4309F008312C9309F00A201A301A401F4
:10006000A501A011071106128612061386138B161E
:100070008B17061D0715861D0711061CA011861C6F
:10008000A01520188320A01C3928A010A0198128B1
:100090009F151F151F194A281E08A60083161E0843
:1000A0008312A700A5012608AA002708AB00033089
:1000B000AC00E830AD00A220201964282E08A6006C
:1000C0002F08A700A50A5328A4012608AA0027087C
:1000D000AB000030AC006430AD00A22020197628BF
:1000E0002E08A6002F08A700A40A6528A3010A303D
:1000F0002702031C7E28A700A30A77282708A2004E
:1001000039289F1149282010061E8C280612230822
:100110001620880086160800861E94288612240859
:100120001620880006170800061F9C2806132508BD
:1001300016208800861708008613220816208800DB
:100140000616080020112D082B02AF00031C2015F5
:100150002C082A02AE00031CB528201D080001301F
:0E016000AE02031C0800201108002015080044
:02400E00713F00
:00000001FF
