:020000040000FA
:020000002128B5
:040002000034003492
:08000800A8000308A9000B1D6C
:1000100012280B11063081072014A10B1228FA3088
:10002000A100A014290883002808090082073F3492
:1000300006345B344F3466346D347D3407347F349A
:100040006F34831607110F3086008801D13081008C
:10005000C4309F008312C9309F00A201A301A401F4
:10006000A501A011071106128612061386138B161E
:100070008B17061C8820861C9820061DA928861D23
:10008000B3282018BA20A01C3928A010A01D812850
:100090009F151F151F194A281E08A60083161E0843
:1000A0008312A700A5012608AD002708AE00033083
:1000B000AF00E830B000D920201964283108A6002C
:1000C0003208A700A50A5328A4012608AD00270876
:1000D000AE000030AF006430B000D920201976287F
:1000E0003108A6003208A700A40A6528A3010A3037
:1000F0002702031C7E28A700A30A77282708A2004E
:1001000039289F114928061CAA00AA0B8328080039
:100110006430AA008320A0120719A016A01E07159C
:10012000A01A07110800861CAA00AA0B9328080031
:10013000643093202012A0192016201AA011201E2E
:10014000A0150800061DAA00861DAA00AA0BA22859
:1001500008006430AA00A220AC0A0B302C020A303E
:10016000031CAC0008006430AA00A220AC0B0800FD
:10017000AC0108002010061EC32806122308162012
:10018000880086160800861ECB28861224081620B2
:10019000880006170800061FD32806132508162016
:1001A0008800861708008613220816208800061685
:1001B0000800201130082E02B200031C20152F0861
:1001C0002D02B100031CEC28201D08000130B102F3
:0C01D000031C0800201108002015080086
:02400E00713F00
:00000001FF
